:100000000C943E000C9448000C9448000C9448005A
:100010000C9448000C9448000C9448000C94480040
:100020000C9448000C9448000C9448000C94480030
:100030000C9448000C9448000C9448000C94480020
:100040000C9448000C9448000C9448000C94480010
:100050000C9448000C9448000C9448000C94480000
:100060000C9448000C9448000C9448000C944800F0
:100070000C9448000C9448000C94480011241FBEB6
:10008000CFEFCDBFDFE3DEBF0E944A000C945503E3
:100090000C940000CF93DF93CDB7DEB76A97CDBF46
:1000A000DEBF80E094E02FEDFC01208780E096E049
:1000B00020E036E0F90120812160FC01208380E00E
:1000C00096E020E036E0F90122812061FC012283E4
:1000D00080E096E021E0FC01228719821A821B82CF
:1000E0001C821D821E821F82188619861A861B8614
:1000F0001C8680E094E028E0FC01258B80E096E0FF
:1001000024E0FC01268380E096E020E036E0F9015F
:1001100020852160FC012087000080E096E0FC0142
:1001200080858130D1F380E096E0FC01808991895F
:10013000CC01A0E0B0E0BC01CD010E943102DC01A5
:10014000CB0189839A83AB83BC8320E030E040EA13
:1001500050E469817A818B819C810E94E802DC01F4
:10016000CB0120E030EC4FE754E4BC01CD010E940C
:100170009001DC01CB018D839E83AF83B88780E043
:1001800090E0A0E8BFEB89839A83AB83BC8380E0D7
:1001900090E0AAE7B4E48D879E87AF87B88B24E50B
:1001A00035E540E554E46D857E858F8598890E940C
:1001B000E802DC01CB01898B9A8BAB8BBC8B20E0F6
:1001C00030E040E85FE369897A898B899C890E94E5
:1001D0008B0188232CF481E090E08D8B9E8B3FC0B7
:1001E00020E03FEF4FE757E469897A898B899C8942
:1001F0000E94E30218164CF520E030E040E251E4A2
:100200006D857E858F8598890E94E802DC01CB018F
:10021000BC01CD010E940202DC01CB018D8B9E8BC3
:100220000FC083E590E08F8B988F8F89988D019711
:10023000F1F78F8B988F8D899E8901978D8B9E8B7F
:100240008D899E89892B69F714C069897A898B8980
:100250009C890E940202DC01CB018D8B9E8B8D89D3
:100260009E89898F9A8F898D9A8D0197F1F7898F51
:100270009A8F80E094E0FC01858980E094E0FC01A5
:10028000158A80E096E022E0FC01268380E096E07B
:1002900020E036E0F90120852160FC012087000084
:1002A00080E096E0FC0180858130D1F380E096E02B
:1002B000FC0180899189CC01A0E0B0E0BC01CD01B6
:1002C0000E943102DC01CB0189839A83AB83BC831A
:1002D00020E030E040EA50E469817A818B819C81A2
:1002E0000E94E802DC01CB0120E030EC4FE754E44F
:1002F000BC01CD010E949001DC01CB0189879A8766
:10030000AB87BC8780E090E0A0E8BFEB89839A834D
:10031000AB83BC83EECE0E946E0208F481E00895A8
:100320000E94A4010C94A9020E94A20258F00E940B
:100330009B0240F029F45F3F29F00C949202511186
:100340000C94DD020C9498020E94BA0268F399237F
:10035000B1F3552391F3951B550BBB27AA276217C1
:100360007307840738F09F5F5F4F220F331F441FCE
:10037000AA1FA9F335D00E2E3AF0E0E832D0915002
:100380005040E695001CCAF72BD0FE2F29D0660FEF
:10039000771F881FBB1F261737074807AB07B0E832
:1003A00009F0BB0B802DBF01FF2793585F4F3AF038
:1003B0009E3F510578F00C9492020C94DD025F3F51
:1003C000E4F3983ED4F3869577956795B795F795BE
:1003D0009F5FC9F7880F911D9695879597F90895A6
:1003E000E1E0660F771F881FBB1F62177307840742
:1003F000BA0720F0621B730B840BBA0BEE1F88F751
:10040000E09508950E94C20288F09F5798F0B92F96
:100410009927B751B0F0E1F0660F771F881F991F39
:100420001AF0BA95C9F714C0B13091F00E94DC02FD
:10043000B1E008950C94DC02672F782F8827B85F0D
:1004400039F0B93FCCF3869577956795B395D9F791
:100450003EF490958095709561957F4F8F4F9F4F9B
:100460000895E89409C097FB3EF4909580957095A7
:1004700061957F4F8F4F9F4F9923A9F0F92F96E9F0
:10048000BB279395F695879577956795B795F11165
:10049000F8CFFAF4BB0F11F460FF1BC06F5F7F4F02
:1004A0008F4F9F4F16C0882311F096E911C0772314
:1004B00021F09EE8872F762F05C0662371F096E81D
:1004C000862F70E060E02AF09A95660F771F881FEC
:1004D000DAF7880F9695879597F90895990F000890
:1004E000550FAA0BE0E8FEEF16161706E807F90706
:1004F000C0F012161306E407F50798F0621B730BA1
:10050000840B950B39F40A2661F0232B242B252B21
:1005100021F408950A2609F4A140A6958FEF811DC4
:10052000811D089597F99F6780E870E060E0089565
:100530009FEF80EC089500240A94161617061806FB
:100540000906089500240A941216130614060506D7
:100550000895092E0394000C11F4882352F0BB0F68
:1005600040F4BF2B11F460FF04C06F5F7F4F8F4FCB
:100570009F4F089557FD9058440F551F59F05F3F06
:1005800071F04795880F97FB991F61F09F3F79F0B5
:1005900087950895121613061406551FF2CF469537
:1005A000F1DF08C0161617061806991FF1CF8695B9
:1005B0007105610508940895E894BB27662777279D
:1005C000CB0197F908950E946E0208F48FEF089509
:1005D0000E94FB020C94A9020E949B0238F00E9428
:1005E000A20220F0952311F00C9492020C94980230
:1005F00011240C94DD020E94BA0270F3959FC1F39E
:10060000950F50E0551F629FF001729FBB27F00DC0
:10061000B11D639FAA27F00DB11DAA1F649F662715
:10062000B00DA11D661F829F2227B00DA11D621F64
:10063000739FB00DA11D621F839FA00D611D221F1E
:10064000749F3327A00D611D231F849F600D211D02
:10065000822F762F6A2F11249F5750409AF0F1F085
:1006600088234AF0EE0FFF1FBB1F661F771F881FEE
:1006700091505040A9F79E3F510580F00C94920292
:100680000C94DD025F3FE4F3983ED4F386957795B2
:100690006795B795F795E7959F5FC1F7FE2B880F94
:0E06A000911D9695879597F90895F894FFCFD0
:00000001FF
