S01A00004661756C745F446574656374696F6E5F76312E737265630A
S11300000C943E000C9448000C9448000C94480056
S11300100C9448000C9448000C9448000C9448003C
S11300200C9448000C9448000C9448000C9448002C
S11300300C9448000C9448000C9448000C9448001C
S11300400C9448000C9448000C9448000C9448000C
S11300500C9448000C9448000C9448000C944800FC
S11300600C9448000C9448000C9448000C944800EC
S11300700C9448000C9448000C94480011241FBEB2
S1130080CFEFCDBFDFE3DEBF0E944A000C94BE0475
S11300900C940000CF93DF93CDB7DEB7C954D109D8
S11300A0CDBFDEBF80E294E024E0FC01218380E048
S11300B094E02FEDFC01208780E096E020E036E01C
S11300C0F90120812160FC01208380E096E020E09A
S11300D036E0F90122812061FC01228380E096E070
S11300E021E0FC01228780E098E020E835E2FC0171
S11300F02087318780E098E020E038E0F90127810B
S11301002773FC01278380E098E020E038E0F901C0
S113011027812360FC0127831B821C821D821E828F
S11301201F82188619861A861B861C861D861E86C3
S11301301F86188A198A1A8A8CEE91E5A8EFBEE305
S11301408B8B9C8BAD8BBE8B8AE097EDA3EABDE3D2
S11301508F8B988FA98FBA8F1B8E1C8E1D8E1E8E2F
S11301601F8E18A219A21AA21BA21CA21DA21EA2B3
S11301708BE0E0E8F9E8DE01DF9601900D928A95C4
S1130180E1F71FA218A619A61AA61BA61CA61DA64F
S11301901EA61FA618AA19821A8280E094E028E0FD
S11301A0FC01258B80E096E024E0FC01268380E0BE
S11301B096E020E036E0F90120852160FC012087EB
S11301C0000080E096E0FC0180858130D1F380E07E
S11301D096E0FC0180899189CC01A0E0B0E0BC01EB
S11301E0CD010E949A03DC01CB018B839C83AD83F8
S11301F0BE8320E030E040EA50E46B817C818D8155
S11302009E810E945104DC01CB0120E030EC4FE7D9
S113021054E4BC01CD010E94F902DC01CB018F83BF
S11302209887A987BA8780E094E0FC01158A80E06A
S113023096E022E0FC01268380E096E020E036E0B0
S1130240F90120852160FC012087000080E096E010
S1130250FC0180858130D1F380E096E0FC01808947
S11302609189CC01A0E0B0E0BC01CD010E949A03C9
S1130270DC01CB018B839C83AD83BE8320E030E023
S113028040EA50E46B817C818D819E810E945104FF
S1130290DC01CB0120E030EC4FE754E4BC01CD019C
S11302A00E94F902DC01CB012B893C894D895E89CE
S11302B0BC01CD010E948702DC01CB018B879C87A6
S11302C0AD87BE872F89388D498D5A8D6B857C8586
S11302D08D859E850E94F902DC01CB018F87988B66
S11302E0A98BBA8B80E098E0FC0180859185CC01D4
S11302F0A0E0B0E0BC01CD010E949A03DC01CB0177
S11303008B8F9C8FAD8FBE8F80E098E0FC0187813E
S1130310882F90E0A0E0B0E0BC01CD010E949A03D8
S1130320DC01CB018F8F98A3A9A3BAA380E690E048
S1130330FC018181882F90E0A0E0B0E0BC01CD01F8
S11303400E949A03DC01CB018BA39CA3ADA3BEA3A3
S113035080E098E0FC018281882F90E0A0E0B0E08A
S1130360BC01CD010E949A03DC01CB018FA398A7A5
S1130370A9A7BAA719821A828BE090E08FA798AB3D
S113038080E098E0FC018481882F90E080729927B6
S1130390892B09F4A9C080E098E020E038E0F90155
S11303A026812064FC0126831DC0000080E098E0C3
S11303B0FC018481882F90E080729927892BB1F306
S11303C080E098E0AE01415C5F4F29813A81240FBF
S11303D0351FF9012081FC01228389819A810196CC
S11303E089839A832FA538A989819A8182179307D3
S11303F0E4F280E094E0FC01158A80E090E0AAE752
S1130400B4E489AB9AABABABBCAB24E535E540E5D2
S113041054E469A97AA98BA99CA90E945104DC011E
S1130420CB018DAB9EABAFABB8AF20E030E040E882
S11304305FE36DA97EA98FA998AD0E94F402882379
S11304402CF481E090E089AF9AAF3FC020E03FEF09
S11304504FE757E46DA97EA98FA998AD0E944C047B
S113046018164CF520E030E040E251E469A97AA97D
S11304708BA99CA90E945104DC01CB01BC01CD01D4
S11304800E946B03DC01CB0189AF9AAF0FC083E5F7
S113049090E08BAF9CAF8BAD9CAD0197F1F78BAF28
S11304A09CAF89AD9AAD019789AF9AAF89AD9AADEA
S11304B0892B69F714C06DA97EA98FA998AD0E94F4
S11304C06B03DC01CB0189AF9AAF89AD9AAD8DAFD7
S11304D09EAF8DAD9EAD0197F1F78DAF9EAF80E0DD
S11304E094E028E0FC01258B80E098E0FC01828107
S11304F0882F90E0A0E0B0E0BC01CD010E949A03F7
S1130500DC01CB018BA79CA7ADA7BEA746CE505854
S1130510BB27AA270E949F020C9412040E94040481
S113052038F00E940B0420F039F49F3F19F426F4AC
S11305300C9401040EF4E095E7FB0C94FB03E92F03
S11305400E94230458F3BA176207730784079507B8
S113055020F079F4A6F50C9445040EF4E0950B2EE6
S1130560BA2FA02D0B01B90190010C01CA01A00101
S11305701124FF27591B99F0593F50F4503E68F15C
S11305801A16F040A22F232F342F4427585FF3CF9D
S1130590469537952795A795F0405395C9F77EF46E
S11305A01F16BA0B620B730B840BBAF09150A1F0B7
S11305B0FF0FBB1F661F771F881FC2F70EC0BA0F3D
S11305C0621F731F841F48F4879577956795B795C5
S11305D0F7959E3F08F0B0CF9395880F08F09927C0
S11305E0EE0F9795879508950E94D70308F481E04C
S11305F008950E940D030C9412040E940B0458F0F9
S11306000E94040440F029F45F3F29F00C94FB039A
S113061051110C9446040C9401040E94230468F3C1
S11306209923B1F3552391F3951B550BBB27AA27A7
S113063062177307840738F09F5F5F4F220F331FE1
S1130640441FAA1FA9F335D00E2E3AF0E0E832D0A9
S113065091505040E695001CCAF72BD0FE2F29D0AC
S1130660660F771F881FBB1F261737074807AB077E
S1130670B0E809F0BB0B802DBF01FF2793585F4FF3
S11306803AF09E3F510578F00C94FB030C94460419
S11306905F3FE4F3983ED4F3869577956795B795D5
S11306A0F7959F5FC9F7880F911D9695879597F9E0
S11306B00895E1E0660F771F881FBB1F6217730759
S11306C08407BA0720F0621B730B840BBA0BEE1F6E
S11306D088F7E09508950E942B0488F09F5798F0BE
S11306E0B92F9927B751B0F0E1F0660F771F881F33
S11306F0991F1AF0BA95C9F714C0B13091F00E944D
S11307004504B1E008950C944504672F782F882799
S1130710B85F39F0B93FCCF3869577956795B39573
S1130720D9F73EF490958095709561957F4F8F4FE2
S11307309F4F0895E89409C097FB3EF490958095E7
S1130740709561957F4F8F4F9F4F9923A9F0F92F93
S113075096E9BB279395F695879577956795B79511
S1130760F111F8CFFAF4BB0F11F460FF1BC06F5FF7
S11307707F4F8F4F9F4F16C0882311F096E911C009
S1130780772321F09EE8872F762F05C0662371F02A
S113079096E8862F70E060E02AF09A95660F771F3E
S11307A0881FDAF7880F9695879597F90895990F1A
S11307B00008550FAA0BE0E8FEEF16161706E80727
S11307C0F907C0F012161306E407F50798F0621B48
S11307D0730B840B950B39F40A2661F0232B242B1D
S11307E0252B21F408950A2609F4A140A6958FEF3C
S11307F0811D811D089597F99F6780E870E060E08E
S113080008959FEF80EC089500240A9416161706A5
S113081018060906089500240A94121613061406ED
S113082005060895092E0394000C11F4882352F050
S1130830BB0F40F4BF2B11F460FF04C06F5F7F4F08
S11308408F4F9F4F089557FD9058440F551F59F0EF
S11308505F3F71F04795880F97FB991F61F09F3FA9
S113086079F087950895121613061406551FF2CFD2
S11308704695F1DF08C0161617061806991FF1CF22
S113088086957105610508940895E894BB27662749
S11308907727CB0197F908950E94D70308F48FEFC7
S11308A008950E9464040C9412040E94040438F015
S11308B00E940B0420F0952311F00C94FB030C947C
S11308C0010411240C9446040E94230470F3959FA0
S11308D0C1F3950F50E0551F629FF001729FBB2733
S11308E0F00DB11D639FAA27F00DB11DAA1F649FCF
S11308F06627B00DA11D661F829F2227B00DA11D82
S1130900621F739FB00DA11D621F839FA00D611D07
S1130910221F749F3327A00D611D231F849F600D28
S1130920211D822F762F6A2F11249F5750409AF051
S1130930F1F088234AF0EE0FFF1FBB1F661F771FDD
S1130940881F91505040A9F79E3F510580F00C94A8
S1130950FB030C9446045F3FE4F3983ED4F386957E
S113096077956795B795F795E7959F5FC1F7FE2B48
S1130970880F911D9695879597F90895F894FFCF60
S10E09806772616E746A6F6E6573002D
S9030000FC
